:020000040000FA
:10000000926A936A946A956A966AFF0E926E000EDF
:10001000936EC26A0F0EC16E070EB46E016A026A59
:10002000006A00501F0B20EC00F0816E31EC00F0F4
:1000300000501E08D8A401D0F3D7002A002AF1D717
:10004000F926300C5B0C4F0C660C6D0C7D0C070C0C
:10005000E70C4F0C770C7C0C790C5E0C790C750C52
:10006000000CE80E026EF20E016E0000012E35EF5C
:0A00700000F0022E33EF00F0120042
:02007A00000084
:020000040030CA
:0100000020DF
:0100010008F6
:0100020038C5
:010003001EDE
:010005008179
:010006008178
:010008000FE8
:010009008076
:01000A000FE6
:01000B00A054
:01000C000FE4
:01000D0040B2
:00000001FF
